{
  "_format": "hh-sol-artifact-1",
  "contractName": "TokenERC721",
  "sourceName": "contracts/TokenERC721.sol",
  "abi": [
    {
      "inputs": [
        {
          "internalType": "string",
          "name": "name",
          "type": "string"
        },
        {
          "internalType": "string",
          "name": "symbol",
          "type": "string"
        },
        {
          "internalType": "address",
          "name": "_ERC20Address",
          "type": "address"
        }
      ],
      "stateMutability": "nonpayable",
      "type": "constructor"
    },
    {
      "anonymous": false,
      "inputs": [
        {
          "indexed": true,
          "internalType": "address",
          "name": "owner",
          "type": "address"
        },
        {
          "indexed": true,
          "internalType": "address",
          "name": "approved",
          "type": "address"
        },
        {
          "indexed": true,
          "internalType": "uint256",
          "name": "tokenId",
          "type": "uint256"
        }
      ],
      "name": "Approval",
      "type": "event"
    },
    {
      "anonymous": false,
      "inputs": [
        {
          "indexed": true,
          "internalType": "address",
          "name": "owner",
          "type": "address"
        },
        {
          "indexed": true,
          "internalType": "address",
          "name": "operator",
          "type": "address"
        },
        {
          "indexed": false,
          "internalType": "bool",
          "name": "approved",
          "type": "bool"
        }
      ],
      "name": "ApprovalForAll",
      "type": "event"
    },
    {
      "anonymous": false,
      "inputs": [
        {
          "indexed": true,
          "internalType": "address",
          "name": "from",
          "type": "address"
        },
        {
          "indexed": true,
          "internalType": "address",
          "name": "to",
          "type": "address"
        },
        {
          "indexed": true,
          "internalType": "uint256",
          "name": "tokenId",
          "type": "uint256"
        }
      ],
      "name": "Transfer",
      "type": "event"
    },
    {
      "inputs": [
        {
          "internalType": "address",
          "name": "to",
          "type": "address"
        },
        {
          "internalType": "uint256",
          "name": "tokenId",
          "type": "uint256"
        }
      ],
      "name": "approve",
      "outputs": [],
      "stateMutability": "nonpayable",
      "type": "function"
    },
    {
      "inputs": [
        {
          "internalType": "address",
          "name": "owner",
          "type": "address"
        }
      ],
      "name": "balanceOf",
      "outputs": [
        {
          "internalType": "uint256",
          "name": "",
          "type": "uint256"
        }
      ],
      "stateMutability": "view",
      "type": "function"
    },
    {
      "inputs": [
        {
          "internalType": "uint256",
          "name": "amount",
          "type": "uint256"
        }
      ],
      "name": "deposit",
      "outputs": [],
      "stateMutability": "nonpayable",
      "type": "function"
    },
    {
      "inputs": [
        {
          "internalType": "uint256",
          "name": "tokenId",
          "type": "uint256"
        }
      ],
      "name": "getApproved",
      "outputs": [
        {
          "internalType": "address",
          "name": "",
          "type": "address"
        }
      ],
      "stateMutability": "view",
      "type": "function"
    },
    {
      "inputs": [],
      "name": "getMyDeposit",
      "outputs": [
        {
          "internalType": "uint256",
          "name": "",
          "type": "uint256"
        }
      ],
      "stateMutability": "view",
      "type": "function"
    },
    {
      "inputs": [],
      "name": "getMyTokenIds",
      "outputs": [
        {
          "internalType": "uint256[]",
          "name": "",
          "type": "uint256[]"
        }
      ],
      "stateMutability": "view",
      "type": "function"
    },
    {
      "inputs": [
        {
          "internalType": "address",
          "name": "owner",
          "type": "address"
        },
        {
          "internalType": "address",
          "name": "operator",
          "type": "address"
        }
      ],
      "name": "isApprovedForAll",
      "outputs": [
        {
          "internalType": "bool",
          "name": "",
          "type": "bool"
        }
      ],
      "stateMutability": "view",
      "type": "function"
    },
    {
      "inputs": [
        {
          "internalType": "address",
          "name": "to",
          "type": "address"
        },
        {
          "internalType": "uint256",
          "name": "tokenId",
          "type": "uint256"
        }
      ],
      "name": "mint",
      "outputs": [],
      "stateMutability": "nonpayable",
      "type": "function"
    },
    {
      "inputs": [],
      "name": "name",
      "outputs": [
        {
          "internalType": "string",
          "name": "",
          "type": "string"
        }
      ],
      "stateMutability": "view",
      "type": "function"
    },
    {
      "inputs": [
        {
          "internalType": "uint256",
          "name": "tokenId",
          "type": "uint256"
        }
      ],
      "name": "ownerOf",
      "outputs": [
        {
          "internalType": "address",
          "name": "",
          "type": "address"
        }
      ],
      "stateMutability": "view",
      "type": "function"
    },
    {
      "inputs": [
        {
          "internalType": "address",
          "name": "from",
          "type": "address"
        },
        {
          "internalType": "address",
          "name": "to",
          "type": "address"
        },
        {
          "internalType": "uint256",
          "name": "tokenId",
          "type": "uint256"
        }
      ],
      "name": "safeTransferFrom",
      "outputs": [],
      "stateMutability": "nonpayable",
      "type": "function"
    },
    {
      "inputs": [
        {
          "internalType": "address",
          "name": "from",
          "type": "address"
        },
        {
          "internalType": "address",
          "name": "to",
          "type": "address"
        },
        {
          "internalType": "uint256",
          "name": "tokenId",
          "type": "uint256"
        },
        {
          "internalType": "bytes",
          "name": "data",
          "type": "bytes"
        }
      ],
      "name": "safeTransferFrom",
      "outputs": [],
      "stateMutability": "nonpayable",
      "type": "function"
    },
    {
      "inputs": [
        {
          "internalType": "address",
          "name": "operator",
          "type": "address"
        },
        {
          "internalType": "bool",
          "name": "approved",
          "type": "bool"
        }
      ],
      "name": "setApprovalForAll",
      "outputs": [],
      "stateMutability": "nonpayable",
      "type": "function"
    },
    {
      "inputs": [
        {
          "internalType": "bytes4",
          "name": "interfaceId",
          "type": "bytes4"
        }
      ],
      "name": "supportsInterface",
      "outputs": [
        {
          "internalType": "bool",
          "name": "",
          "type": "bool"
        }
      ],
      "stateMutability": "view",
      "type": "function"
    },
    {
      "inputs": [],
      "name": "symbol",
      "outputs": [
        {
          "internalType": "string",
          "name": "",
          "type": "string"
        }
      ],
      "stateMutability": "view",
      "type": "function"
    },
    {
      "inputs": [
        {
          "internalType": "uint256",
          "name": "tokenId",
          "type": "uint256"
        }
      ],
      "name": "tokenURI",
      "outputs": [
        {
          "internalType": "string",
          "name": "",
          "type": "string"
        }
      ],
      "stateMutability": "view",
      "type": "function"
    },
    {
      "inputs": [],
      "name": "totalSupply",
      "outputs": [
        {
          "internalType": "uint256",
          "name": "",
          "type": "uint256"
        }
      ],
      "stateMutability": "view",
      "type": "function"
    },
    {
      "inputs": [
        {
          "internalType": "address",
          "name": "from",
          "type": "address"
        },
        {
          "internalType": "address",
          "name": "to",
          "type": "address"
        },
        {
          "internalType": "uint256",
          "name": "tokenId",
          "type": "uint256"
        }
      ],
      "name": "transferFrom",
      "outputs": [],
      "stateMutability": "nonpayable",
      "type": "function"
    }
  ],
  "bytecode": "0x6080604052346200034f57620017e6803803806200001d8162000354565b92833981016060828203126200034f5781516001600160401b0391908281116200034f57816200004f9185016200037a565b602091828501518481116200034f576040916200006e9187016200037a565b9401516001600160a01b03811693908490036200034f57815181811162000339576000938454916001948584811c941680156200032e575b838510146200031a578190601f94858111620002c7575b5083908583116001146200026357889262000257575b5050600019600383901b1c191690851b1785555b8651928311620002435783548481811c9116801562000238575b828210146200022457828111620001dc575b50809183116001146200017557508394958293949262000169575b5050600019600383901b1c191690821b1790555b600855600680546001600160a01b0319169190911790556040516113f99081620003ed8239f35b0151905038806200012e565b90601f198316968486528286209286905b898210620001c4575050838596979810620001aa575b505050811b01905562000142565b015160001960f88460031b161c191690553880806200019c565b80878596829496860151815501950193019062000186565b8486528186208380860160051c8201928487106200021a575b0160051c019085905b8281106200020e57505062000113565b878155018590620001fe565b92508192620001f5565b634e487b7160e01b86526022600452602486fd5b90607f169062000101565b634e487b7160e01b85526041600452602485fd5b015190503880620000d3565b8880528489208894509190601f1984168a5b87828210620002b0575050841162000296575b505050811b018555620000e7565b015160001960f88460031b161c1916905538808062000288565b8385015186558b9790950194938401930162000275565b9091508780528388208580850160051c82019286861062000310575b918991869594930160051c01915b82811062000301575050620000bd565b8a8155859450899101620002f1565b92508192620002e3565b634e487b7160e01b87526022600452602487fd5b93607f1693620000a6565b634e487b7160e01b600052604160045260246000fd5b600080fd5b6040519190601f01601f191682016001600160401b038111838210176200033957604052565b919080601f840112156200034f5782516001600160401b0381116200033957602090620003b0601f8201601f1916830162000354565b928184528282870101116200034f5760005b818110620003d857508260009394955001015290565b8581018301518482018401528201620003c256fe608060408181526004918236101561001657600080fd5b600092833560e01c91826301ffc9a714610c6a5750816306fdde0314610bbd578163081812fc14610b9d578163095ea7b314610a2f57816318160ddd14610a1057816323b872dd146109e657816340c10f191461092a57816342842e0e146108db5781636352211e146108aa57816370a082311461087d5781637ba0ca0d1461077857816395d89b411461068f578163a22cb465146105c3578163b6b55f251461040b578163b88d4fde14610381578163c87b56dd1461016257508063e985e9c5146101135763f4135992146100eb57600080fd5b3461010f578160031936011261010f57806020923381526007845220549051908152f35b5080fd5b503461010f578060031936011261010f5760209161012f610d1d565b82610138610d38565b9260018060a01b03809316815260058652209116600052825260ff81600020541690519015158152f35b90503461037d576020908160031936011261037957819293813561018d610188826111be565b610e69565b85519261019984610d83565b828452821561035c57829190819072184f03e93ff9f4daa797ed6e38ed64bf6a1f0160401b828181101561034f575b508790506904ee2d6d415b85acef8160201b80851015610341575b5050662386f26fc1000080841015610332575b506305f5e10080841015610323575b5061271080841015610315575b50506064821015610305575b600a809210156102fb575b6021908893600192816102568580940161024e61024582610dd7565b9951998a610db4565b808952610dd7565b878b019890601f1901368a3750860101905b6102c5575b50505050926102a4926102b0926102c195885195836102958895518092888089019101610cd5565b84019151809386840190610cd5565b01038084520182610db4565b925b51928284938452830190610cf8565b0390f35b600019019083906f181899199a1a9b1b9c1cb0b131b232b360811b8282061a8353049182156102f657919082610268565b61026d565b9160010191610229565b919060646002910491019161021e565b930192909104903880610212565b60089194930492019238610205565b601091949304920192386101f6565b9401939092049186386101e3565b8a955004925038806101c8565b50505050506102c1825161036f81610d83565b60008152926102b2565b8380fd5b8280fd5b9190503461037d57608036600319011261037d5761039d610d1d565b6103a5610d38565b6064359385906001600160401b03861161010f573660238701121561010f57850135946103dd6103d487610dd7565b95519586610db4565b858552366024878301011161010f578561040896602460209301838801378501015260443591610f5f565b80f35b905082346105c057602090816003193601126105c0576006546001600160a01b03169280359290843b1561037d5782865163079cc67960e41b815233838201528181602498888a8301528160449586925af180156105b65761058a575b5033845260079485845287852080549182018092116105785755939433159490845b3386528785526103e889872054048110156105745788862080546103e71981019190821161056257556008878154916104c283611347565b90556105345790816104df6104d961052f946111be565b156112fc565b6104eb6104d9826111be565b33808952600388528b892080546001019055818952600288528b892080546001600160a01b03191682179055886000805160206113a48339815191528180a4611347565b61048a565b50509083600080516020611384833981519152926064958a519562461bcd60e51b8752860152840152820152fd5b634e487b7160e01b8852601186528388fd5b8580f35b634e487b7160e01b8652601184528786fd5b9093906001600160401b0381116105a45787529287610468565b5060418692634e487b7160e01b835252fd5b88513d87823e3d90fd5b80fd5b9190503461037d578060031936011261037d576105de610d1d565b906024359182151580930361068b576001600160a01b03169233841461064d5750338452600560205280842083855260205280842060ff1981541660ff8416179055519081527f17307eab39ab6107e8899845ad3d59bd9653f200f220920489ca2b5937696c3160203392a380f35b6020606492519162461bcd60e51b8352820152601960248201527822a9219b99189d1030b8383937bb32903a379031b0b63632b960391b6044820152fd5b8480fd5b8284346105c057806003193601126105c0578151918160019283549384811c9181861695861561076e575b602096878510811461075b578899509688969785829a5291826000146107345750506001146106f7575b5050506102c192916102b2910385610db4565b91908693508083528383205b82841061071c57505050820101816102b26102c16106e4565b8054848a018601528895508794909301928101610703565b60ff19168782015293151560051b860190930193508492506102b291506102c190506106e4565b634e487b7160e01b835260228a52602483fd5b92607f16926106ba565b8391503461010f578160031936011261010f57919061079633610df2565b906107b86107a38361136c565b926107b085519485610db4565b80845261136c565b6020948584019391601f190136853760085483805b828110610813575050505083519485948186019282875251809352850193925b8281106107fc57505050500390f35b8351855286955093810193928101926001016107ed565b9697959693959493336001600160a01b0361082d83610eb0565b1614610848575b61083d90611347565b9796959394976107cd565b61085182611347565b91875181101561086a5760051b87018601819052610834565b634e487b7160e01b865260328552602486fd5b50503461010f57602036600319011261010f576020906108a361089e610d1d565b610df2565b9051908152f35b8284346105c05760203660031901126105c057506108ca60209235610eb0565b90516001600160a01b039091168152f35b83833461010f576108eb36610d4e565b83519390929060208501906001600160401b038211868310176109175761040896975052858452610f5f565b634e487b7160e01b875260418852602487fd5b90503461037d578160031936011261037d57610944610d1d565b602435926001600160a01b039091169182156109b657506109676104d9846111be565b6109736104d9846111be565b818452600360209081528185208054600101905583855260029052832080546001600160a01b03191682179055826000805160206113a48339815191528180a480f35b6020606492519162461bcd60e51b8352820152602060248201526000805160206113848339815191526044820152fd5b83346105c0576104086109f836610d4e565b91610a0b610a068433610ffa565b610efd565b6110c2565b50503461010f578160031936011261010f576020906008549051908152f35b90503461037d578160031936011261037d57610a49610d1d565b6024359290916001600160a01b0391908280610a6487610eb0565b16941693808514610b5057803314908115610b31575b5015610ac957848652602052842080546001600160a01b03191683179055610aa183610eb0565b167f8c5be1e5ebec7d5bd14f71427d1e84f3dd0314c0f7b2291e5b200ac8c7c3b9258480a480f35b6020608492519162461bcd60e51b8352820152603d60248201527f4552433732313a20617070726f76652063616c6c6572206973206e6f7420746f60448201527f6b656e206f776e6572206f7220617070726f76656420666f7220616c6c0000006064820152fd5b90508652600560205281862033875260205260ff828720541638610a7a565b506020608492519162461bcd60e51b8352820152602160248201527f4552433732313a20617070726f76616c20746f2063757272656e74206f776e656044820152603960f91b6064820152fd5b8284346105c05760203660031901126105c057506108ca60209235610ed6565b8284346105c057806003193601126105c05781519181825492600184811c91818616958615610c60575b602096878510811461075b578899509688969785829a529182600014610734575050600114610c23575050506102c192916102b2910385610db4565b91908693508280528383205b828410610c4857505050820101816102b26102c16106e4565b8054848a018601528895508794909301928101610c2f565b92607f1692610be7565b84913461037d57602036600319011261037d573563ffffffff60e01b811680910361037d57602092506380ac58cd60e01b8114908115610cc4575b8115610cb3575b5015158152f35b6301ffc9a760e01b14905083610cac565b635b5e139f60e01b81149150610ca5565b60005b838110610ce85750506000910152565b8181015183820152602001610cd8565b90602091610d1181518092818552858086019101610cd5565b601f01601f1916010190565b600435906001600160a01b0382168203610d3357565b600080fd5b602435906001600160a01b0382168203610d3357565b6060906003190112610d33576001600160a01b03906004358281168103610d3357916024359081168103610d33579060443590565b602081019081106001600160401b03821117610d9e57604052565b634e487b7160e01b600052604160045260246000fd5b601f909101601f19168101906001600160401b03821190821017610d9e57604052565b6001600160401b038111610d9e57601f01601f191660200190565b6001600160a01b03168015610e1257600052600360205260406000205490565b60405162461bcd60e51b815260206004820152602960248201527f4552433732313a2061646472657373207a65726f206973206e6f7420612076616044820152683634b21037bbb732b960b91b6064820152608490fd5b15610e7057565b60405162461bcd60e51b8152602060048201526018602482015277115490cdcc8c4e881a5b9d985b1a59081d1bdad95b88125160421b6044820152606490fd5b6000908152600260205260409020546001600160a01b0316610ed3811515610e69565b90565b610ee2610188826111be565b6000908152600460205260409020546001600160a01b031690565b15610f0457565b60405162461bcd60e51b815260206004820152602d60248201527f4552433732313a2063616c6c6572206973206e6f7420746f6b656e206f776e6560448201526c1c881bdc88185c1c1c9bdd9959609a1b6064820152608490fd5b90610f83939291610f73610a068433610ffa565b610f7e8383836110c2565b6111db565b15610f8a57565b60405162461bcd60e51b815280610fa360048201610fa7565b0390fd5b60809060208152603260208201527f4552433732313a207472616e7366657220746f206e6f6e20455243373231526560408201527131b2b4bb32b91034b6b83632b6b2b73a32b960711b60608201520190565b906001600160a01b03808061100e84610eb0565b16931691838314938415611041575b50831561102b575b50505090565b61103791929350610ed6565b1614388080611025565b909350600052600560205260406000208260005260205260ff60406000205416923861101d565b1561106f57565b60405162461bcd60e51b815260206004820152602560248201527f4552433732313a207472616e736665722066726f6d20696e636f72726563742060448201526437bbb732b960d91b6064820152608490fd5b906110ea916110d084610eb0565b6001600160a01b0393918416928492909183168414611068565b1691821561116d57816111079161110086610eb0565b1614611068565b6000805160206113a4833981519152600084815260046020526040812060018060a01b03199081815416905583825260036020526040822060001981540190558482526040822060018154019055858252600260205284604083209182541617905580a4565b60405162461bcd60e51b8152602060048201526024808201527f4552433732313a207472616e7366657220746f20746865207a65726f206164646044820152637265737360e01b6064820152608490fd5b6000908152600260205260409020546001600160a01b0316151590565b9293600093909291803b156112f1579484916112359660405180948193630a85bd0160e11b9788845233600485015260018060a01b0380921660248501526044840152608060648401528260209b8c976084830190610cf8565b0393165af18491816112b1575b506112a0575050503d600014611298573d61125c81610dd7565b9061126a6040519283610db4565b81528091833d92013e5b805191826112955760405162461bcd60e51b815280610fa360048201610fa7565b01fd5b506060611274565b6001600160e01b0319161492509050565b9091508581813d83116112ea575b6112c98183610db4565b8101031261068b57516001600160e01b03198116810361068b579038611242565b503d6112bf565b505050915050600190565b1561130357565b60405162461bcd60e51b815260206004820152601c60248201527b115490cdcc8c4e881d1bdad95b88185b1c9958591e481b5a5b9d195960221b6044820152606490fd5b60001981146113565760010190565b634e487b7160e01b600052601160045260246000fd5b6001600160401b038111610d9e5760051b6020019056fe4552433732313a206d696e7420746f20746865207a65726f2061646472657373ddf252ad1be2c89b69c2b068fc378daa952ba7f163c4a11628f55a4df523b3efa2646970667358221220b0606dd7f6b4bec1922648ba5fdff78b57bf43ffa633fbef9d4b91439152271164736f6c63430008110033",
  "linkReferences": {},
  "deployedLinkReferences": {}
}