{
  "_format": "hh-sol-artifact-1",
  "contractName": "TokenERC20",
  "sourceName": "contracts/TokenERC20.sol",
  "abi": [
    {
      "inputs": [
        {
          "internalType": "string",
          "name": "name",
          "type": "string"
        },
        {
          "internalType": "string",
          "name": "symbol",
          "type": "string"
        }
      ],
      "stateMutability": "nonpayable",
      "type": "constructor"
    },
    {
      "anonymous": false,
      "inputs": [
        {
          "indexed": true,
          "internalType": "address",
          "name": "owner",
          "type": "address"
        },
        {
          "indexed": true,
          "internalType": "address",
          "name": "spender",
          "type": "address"
        },
        {
          "indexed": false,
          "internalType": "uint256",
          "name": "value",
          "type": "uint256"
        }
      ],
      "name": "Approval",
      "type": "event"
    },
    {
      "anonymous": false,
      "inputs": [
        {
          "indexed": true,
          "internalType": "address",
          "name": "from",
          "type": "address"
        },
        {
          "indexed": true,
          "internalType": "address",
          "name": "to",
          "type": "address"
        },
        {
          "indexed": false,
          "internalType": "uint256",
          "name": "value",
          "type": "uint256"
        }
      ],
      "name": "Transfer",
      "type": "event"
    },
    {
      "inputs": [
        {
          "internalType": "address",
          "name": "owner",
          "type": "address"
        },
        {
          "internalType": "address",
          "name": "spender",
          "type": "address"
        }
      ],
      "name": "allowance",
      "outputs": [
        {
          "internalType": "uint256",
          "name": "",
          "type": "uint256"
        }
      ],
      "stateMutability": "view",
      "type": "function"
    },
    {
      "inputs": [
        {
          "internalType": "address",
          "name": "spender",
          "type": "address"
        },
        {
          "internalType": "uint256",
          "name": "amount",
          "type": "uint256"
        }
      ],
      "name": "approve",
      "outputs": [
        {
          "internalType": "bool",
          "name": "",
          "type": "bool"
        }
      ],
      "stateMutability": "nonpayable",
      "type": "function"
    },
    {
      "inputs": [
        {
          "internalType": "address",
          "name": "account",
          "type": "address"
        }
      ],
      "name": "balanceOf",
      "outputs": [
        {
          "internalType": "uint256",
          "name": "",
          "type": "uint256"
        }
      ],
      "stateMutability": "view",
      "type": "function"
    },
    {
      "inputs": [
        {
          "internalType": "address",
          "name": "account",
          "type": "address"
        },
        {
          "internalType": "uint256",
          "name": "amount",
          "type": "uint256"
        }
      ],
      "name": "burnFrom",
      "outputs": [],
      "stateMutability": "nonpayable",
      "type": "function"
    },
    {
      "inputs": [],
      "name": "decimals",
      "outputs": [
        {
          "internalType": "uint8",
          "name": "",
          "type": "uint8"
        }
      ],
      "stateMutability": "pure",
      "type": "function"
    },
    {
      "inputs": [
        {
          "internalType": "address",
          "name": "spender",
          "type": "address"
        },
        {
          "internalType": "uint256",
          "name": "subtractedValue",
          "type": "uint256"
        }
      ],
      "name": "decreaseAllowance",
      "outputs": [
        {
          "internalType": "bool",
          "name": "",
          "type": "bool"
        }
      ],
      "stateMutability": "nonpayable",
      "type": "function"
    },
    {
      "inputs": [
        {
          "internalType": "address",
          "name": "spender",
          "type": "address"
        },
        {
          "internalType": "uint256",
          "name": "addedValue",
          "type": "uint256"
        }
      ],
      "name": "increaseAllowance",
      "outputs": [
        {
          "internalType": "bool",
          "name": "",
          "type": "bool"
        }
      ],
      "stateMutability": "nonpayable",
      "type": "function"
    },
    {
      "inputs": [
        {
          "internalType": "address",
          "name": "to",
          "type": "address"
        },
        {
          "internalType": "uint256",
          "name": "amount",
          "type": "uint256"
        }
      ],
      "name": "mint",
      "outputs": [],
      "stateMutability": "nonpayable",
      "type": "function"
    },
    {
      "inputs": [],
      "name": "name",
      "outputs": [
        {
          "internalType": "string",
          "name": "",
          "type": "string"
        }
      ],
      "stateMutability": "view",
      "type": "function"
    },
    {
      "inputs": [],
      "name": "symbol",
      "outputs": [
        {
          "internalType": "string",
          "name": "",
          "type": "string"
        }
      ],
      "stateMutability": "view",
      "type": "function"
    },
    {
      "inputs": [],
      "name": "totalSupply",
      "outputs": [
        {
          "internalType": "uint256",
          "name": "",
          "type": "uint256"
        }
      ],
      "stateMutability": "view",
      "type": "function"
    },
    {
      "inputs": [
        {
          "internalType": "address",
          "name": "to",
          "type": "address"
        },
        {
          "internalType": "uint256",
          "name": "amount",
          "type": "uint256"
        }
      ],
      "name": "transfer",
      "outputs": [
        {
          "internalType": "bool",
          "name": "",
          "type": "bool"
        }
      ],
      "stateMutability": "nonpayable",
      "type": "function"
    },
    {
      "inputs": [
        {
          "internalType": "address",
          "name": "from",
          "type": "address"
        },
        {
          "internalType": "address",
          "name": "to",
          "type": "address"
        },
        {
          "internalType": "uint256",
          "name": "amount",
          "type": "uint256"
        }
      ],
      "name": "transferFrom",
      "outputs": [
        {
          "internalType": "bool",
          "name": "",
          "type": "bool"
        }
      ],
      "stateMutability": "nonpayable",
      "type": "function"
    }
  ],
  "bytecode": "0x6080604052620f42406005553480156200001857600080fd5b5060405162001fee38038062001fee83398181016040528101906200003e9190620003a2565b8181816003908162000051919062000672565b50806004908162000063919062000672565b5050506200007a336005546200008260201b60201c565b505062000874565b6200009482826200009860201b60201c565b5050565b600073ffffffffffffffffffffffffffffffffffffffff168273ffffffffffffffffffffffffffffffffffffffff16036200010a576040517f08c379a00000000000000000000000000000000000000000000000000000000081526004016200010190620007ba565b60405180910390fd5b6200011e600083836200020560201b60201c565b80600260008282546200013291906200080b565b92505081905550806000808473ffffffffffffffffffffffffffffffffffffffff1673ffffffffffffffffffffffffffffffffffffffff168152602001908152602001600020600082825401925050819055508173ffffffffffffffffffffffffffffffffffffffff16600073ffffffffffffffffffffffffffffffffffffffff167fddf252ad1be2c89b69c2b068fc378daa952ba7f163c4a11628f55a4df523b3ef83604051620001e5919062000857565b60405180910390a362000201600083836200020a60201b60201c565b5050565b505050565b505050565b6000604051905090565b600080fd5b600080fd5b600080fd5b600080fd5b6000601f19601f8301169050919050565b7f4e487b7100000000000000000000000000000000000000000000000000000000600052604160045260246000fd5b62000278826200022d565b810181811067ffffffffffffffff821117156200029a57620002996200023e565b5b80604052505050565b6000620002af6200020f565b9050620002bd82826200026d565b919050565b600067ffffffffffffffff821115620002e057620002df6200023e565b5b620002eb826200022d565b9050602081019050919050565b60005b8381101562000318578082015181840152602081019050620002fb565b60008484015250505050565b60006200033b6200033584620002c2565b620002a3565b9050828152602081018484840111156200035a576200035962000228565b5b62000367848285620002f8565b509392505050565b600082601f83011262000387576200038662000223565b5b81516200039984826020860162000324565b91505092915050565b60008060408385031215620003bc57620003bb62000219565b5b600083015167ffffffffffffffff811115620003dd57620003dc6200021e565b5b620003eb858286016200036f565b925050602083015167ffffffffffffffff8111156200040f576200040e6200021e565b5b6200041d858286016200036f565b9150509250929050565b600081519050919050565b7f4e487b7100000000000000000000000000000000000000000000000000000000600052602260045260246000fd5b600060028204905060018216806200047a57607f821691505b60208210810362000490576200048f62000432565b5b50919050565b60008190508160005260206000209050919050565b60006020601f8301049050919050565b600082821b905092915050565b600060088302620004fa7fffffffffffffffffffffffffffffffffffffffffffffffffffffffffffffffff82620004bb565b620005068683620004bb565b95508019841693508086168417925050509392505050565b6000819050919050565b6000819050919050565b6000620005536200054d62000547846200051e565b62000528565b6200051e565b9050919050565b6000819050919050565b6200056f8362000532565b620005876200057e826200055a565b848454620004c8565b825550505050565b600090565b6200059e6200058f565b620005ab81848462000564565b505050565b5b81811015620005d357620005c760008262000594565b600181019050620005b1565b5050565b601f8211156200062257620005ec8162000496565b620005f784620004ab565b8101602085101562000607578190505b6200061f6200061685620004ab565b830182620005b0565b50505b505050565b600082821c905092915050565b6000620006476000198460080262000627565b1980831691505092915050565b600062000662838362000634565b9150826002028217905092915050565b6200067d8262000427565b67ffffffffffffffff8111156200069957620006986200023e565b5b620006a5825462000461565b620006b2828285620005d7565b600060209050601f831160018114620006ea5760008415620006d5578287015190505b620006e1858262000654565b86555062000751565b601f198416620006fa8662000496565b60005b828110156200072457848901518255600182019150602085019450602081019050620006fd565b8683101562000744578489015162000740601f89168262000634565b8355505b6001600288020188555050505b505050505050565b600082825260208201905092915050565b7f45524332303a206d696e7420746f20746865207a65726f206164647265737300600082015250565b6000620007a2601f8362000759565b9150620007af826200076a565b602082019050919050565b60006020820190508181036000830152620007d58162000793565b9050919050565b7f4e487b7100000000000000000000000000000000000000000000000000000000600052601160045260246000fd5b600062000818826200051e565b915062000825836200051e565b925082820190508082111562000840576200083f620007dc565b5b92915050565b62000851816200051e565b82525050565b60006020820190506200086e600083018462000846565b92915050565b61176a80620008846000396000f3fe608060405234801561001057600080fd5b50600436106100cf5760003560e01c806340c10f191161008c57806395d89b411161006657806395d89b4114610226578063a457c2d714610244578063a9059cbb14610274578063dd62ed3e146102a4576100cf565b806340c10f19146101be57806370a08231146101da57806379cc67901461020a576100cf565b806306fdde03146100d4578063095ea7b3146100f257806318160ddd1461012257806323b872dd14610140578063313ce56714610170578063395093511461018e575b600080fd5b6100dc6102d4565b6040516100e99190610eb7565b60405180910390f35b61010c60048036038101906101079190610f72565b610366565b6040516101199190610fcd565b60405180910390f35b61012a610389565b6040516101379190610ff7565b60405180910390f35b61015a60048036038101906101559190611012565b610393565b6040516101679190610fcd565b60405180910390f35b6101786103c2565b6040516101859190611081565b60405180910390f35b6101a860048036038101906101a39190610f72565b6103cb565b6040516101b59190610fcd565b60405180910390f35b6101d860048036038101906101d39190610f72565b610402565b005b6101f460048036038101906101ef919061109c565b610410565b6040516102019190610ff7565b60405180910390f35b610224600480360381019061021f9190610f72565b610458565b005b61022e610466565b60405161023b9190610eb7565b60405180910390f35b61025e60048036038101906102599190610f72565b6104f8565b60405161026b9190610fcd565b60405180910390f35b61028e60048036038101906102899190610f72565b61056f565b60405161029b9190610fcd565b60405180910390f35b6102be60048036038101906102b991906110c9565b610592565b6040516102cb9190610ff7565b60405180910390f35b6060600380546102e390611138565b80601f016020809104026020016040519081016040528092919081815260200182805461030f90611138565b801561035c5780601f106103315761010080835404028352916020019161035c565b820191906000526020600020905b81548152906001019060200180831161033f57829003601f168201915b5050505050905090565b600080610371610619565b905061037e818585610621565b600191505092915050565b6000600254905090565b60008061039e610619565b90506103ab8582856107ea565b6103b6858585610876565b60019150509392505050565b60006012905090565b6000806103d6610619565b90506103f78185856103e88589610592565b6103f29190611198565b610621565b600191505092915050565b61040c8282610aec565b5050565b60008060008373ffffffffffffffffffffffffffffffffffffffff1673ffffffffffffffffffffffffffffffffffffffff168152602001908152602001600020549050919050565b6104628282610c42565b5050565b60606004805461047590611138565b80601f01602080910402602001604051908101604052809291908181526020018280546104a190611138565b80156104ee5780601f106104c3576101008083540402835291602001916104ee565b820191906000526020600020905b8154815290600101906020018083116104d157829003601f168201915b5050505050905090565b600080610503610619565b905060006105118286610592565b905083811015610556576040517f08c379a000000000000000000000000000000000000000000000000000000000815260040161054d9061123e565b60405180910390fd5b6105638286868403610621565b60019250505092915050565b60008061057a610619565b9050610587818585610876565b600191505092915050565b6000600160008473ffffffffffffffffffffffffffffffffffffffff1673ffffffffffffffffffffffffffffffffffffffff16815260200190815260200160002060008373ffffffffffffffffffffffffffffffffffffffff1673ffffffffffffffffffffffffffffffffffffffff16815260200190815260200160002054905092915050565b600033905090565b600073ffffffffffffffffffffffffffffffffffffffff168373ffffffffffffffffffffffffffffffffffffffff1603610690576040517f08c379a0000000000000000000000000000000000000000000000000000000008152600401610687906112d0565b60405180910390fd5b600073ffffffffffffffffffffffffffffffffffffffff168273ffffffffffffffffffffffffffffffffffffffff16036106ff576040517f08c379a00000000000000000000000000000000000000000000000000000000081526004016106f690611362565b60405180910390fd5b80600160008573ffffffffffffffffffffffffffffffffffffffff1673ffffffffffffffffffffffffffffffffffffffff16815260200190815260200160002060008473ffffffffffffffffffffffffffffffffffffffff1673ffffffffffffffffffffffffffffffffffffffff168152602001908152602001600020819055508173ffffffffffffffffffffffffffffffffffffffff168373ffffffffffffffffffffffffffffffffffffffff167f8c5be1e5ebec7d5bd14f71427d1e84f3dd0314c0f7b2291e5b200ac8c7c3b925836040516107dd9190610ff7565b60405180910390a3505050565b60006107f68484610592565b90507fffffffffffffffffffffffffffffffffffffffffffffffffffffffffffffffff81146108705781811015610862576040517f08c379a0000000000000000000000000000000000000000000000000000000008152600401610859906113ce565b60405180910390fd5b61086f8484848403610621565b5b50505050565b600073ffffffffffffffffffffffffffffffffffffffff168373ffffffffffffffffffffffffffffffffffffffff16036108e5576040517f08c379a00000000000000000000000000000000000000000000000000000000081526004016108dc90611460565b60405180910390fd5b600073ffffffffffffffffffffffffffffffffffffffff168273ffffffffffffffffffffffffffffffffffffffff1603610954576040517f08c379a000000000000000000000000000000000000000000000000000000000815260040161094b906114f2565b60405180910390fd5b61095f838383610c50565b60008060008573ffffffffffffffffffffffffffffffffffffffff1673ffffffffffffffffffffffffffffffffffffffff168152602001908152602001600020549050818110156109e5576040517f08c379a00000000000000000000000000000000000000000000000000000000081526004016109dc90611584565b60405180910390fd5b8181036000808673ffffffffffffffffffffffffffffffffffffffff1673ffffffffffffffffffffffffffffffffffffffff16815260200190815260200160002081905550816000808573ffffffffffffffffffffffffffffffffffffffff1673ffffffffffffffffffffffffffffffffffffffff168152602001908152602001600020600082825401925050819055508273ffffffffffffffffffffffffffffffffffffffff168473ffffffffffffffffffffffffffffffffffffffff167fddf252ad1be2c89b69c2b068fc378daa952ba7f163c4a11628f55a4df523b3ef84604051610ad39190610ff7565b60405180910390a3610ae6848484610c55565b50505050565b600073ffffffffffffffffffffffffffffffffffffffff168273ffffffffffffffffffffffffffffffffffffffff1603610b5b576040517f08c379a0000000000000000000000000000000000000000000000000000000008152600401610b52906115f0565b60405180910390fd5b610b6760008383610c50565b8060026000828254610b799190611198565b92505081905550806000808473ffffffffffffffffffffffffffffffffffffffff1673ffffffffffffffffffffffffffffffffffffffff168152602001908152602001600020600082825401925050819055508173ffffffffffffffffffffffffffffffffffffffff16600073ffffffffffffffffffffffffffffffffffffffff167fddf252ad1be2c89b69c2b068fc378daa952ba7f163c4a11628f55a4df523b3ef83604051610c2a9190610ff7565b60405180910390a3610c3e60008383610c55565b5050565b610c4c8282610c5a565b5050565b505050565b505050565b600073ffffffffffffffffffffffffffffffffffffffff168273ffffffffffffffffffffffffffffffffffffffff1603610cc9576040517f08c379a0000000000000000000000000000000000000000000000000000000008152600401610cc090611682565b60405180910390fd5b610cd582600083610c50565b60008060008473ffffffffffffffffffffffffffffffffffffffff1673ffffffffffffffffffffffffffffffffffffffff16815260200190815260200160002054905081811015610d5b576040517f08c379a0000000000000000000000000000000000000000000000000000000008152600401610d5290611714565b60405180910390fd5b8181036000808573ffffffffffffffffffffffffffffffffffffffff1673ffffffffffffffffffffffffffffffffffffffff1681526020019081526020016000208190555081600260008282540392505081905550600073ffffffffffffffffffffffffffffffffffffffff168373ffffffffffffffffffffffffffffffffffffffff167fddf252ad1be2c89b69c2b068fc378daa952ba7f163c4a11628f55a4df523b3ef84604051610e0e9190610ff7565b60405180910390a3610e2283600084610c55565b505050565b600081519050919050565b600082825260208201905092915050565b60005b83811015610e61578082015181840152602081019050610e46565b60008484015250505050565b6000601f19601f8301169050919050565b6000610e8982610e27565b610e938185610e32565b9350610ea3818560208601610e43565b610eac81610e6d565b840191505092915050565b60006020820190508181036000830152610ed18184610e7e565b905092915050565b600080fd5b600073ffffffffffffffffffffffffffffffffffffffff82169050919050565b6000610f0982610ede565b9050919050565b610f1981610efe565b8114610f2457600080fd5b50565b600081359050610f3681610f10565b92915050565b6000819050919050565b610f4f81610f3c565b8114610f5a57600080fd5b50565b600081359050610f6c81610f46565b92915050565b60008060408385031215610f8957610f88610ed9565b5b6000610f9785828601610f27565b9250506020610fa885828601610f5d565b9150509250929050565b60008115159050919050565b610fc781610fb2565b82525050565b6000602082019050610fe26000830184610fbe565b92915050565b610ff181610f3c565b82525050565b600060208201905061100c6000830184610fe8565b92915050565b60008060006060848603121561102b5761102a610ed9565b5b600061103986828701610f27565b935050602061104a86828701610f27565b925050604061105b86828701610f5d565b9150509250925092565b600060ff82169050919050565b61107b81611065565b82525050565b60006020820190506110966000830184611072565b92915050565b6000602082840312156110b2576110b1610ed9565b5b60006110c084828501610f27565b91505092915050565b600080604083850312156110e0576110df610ed9565b5b60006110ee85828601610f27565b92505060206110ff85828601610f27565b9150509250929050565b7f4e487b7100000000000000000000000000000000000000000000000000000000600052602260045260246000fd5b6000600282049050600182168061115057607f821691505b60208210810361116357611162611109565b5b50919050565b7f4e487b7100000000000000000000000000000000000000000000000000000000600052601160045260246000fd5b60006111a382610f3c565b91506111ae83610f3c565b92508282019050808211156111c6576111c5611169565b5b92915050565b7f45524332303a2064656372656173656420616c6c6f77616e63652062656c6f7760008201527f207a65726f000000000000000000000000000000000000000000000000000000602082015250565b6000611228602583610e32565b9150611233826111cc565b604082019050919050565b600060208201905081810360008301526112578161121b565b9050919050565b7f45524332303a20617070726f76652066726f6d20746865207a65726f2061646460008201527f7265737300000000000000000000000000000000000000000000000000000000602082015250565b60006112ba602483610e32565b91506112c58261125e565b604082019050919050565b600060208201905081810360008301526112e9816112ad565b9050919050565b7f45524332303a20617070726f766520746f20746865207a65726f20616464726560008201527f7373000000000000000000000000000000000000000000000000000000000000602082015250565b600061134c602283610e32565b9150611357826112f0565b604082019050919050565b6000602082019050818103600083015261137b8161133f565b9050919050565b7f45524332303a20696e73756666696369656e7420616c6c6f77616e6365000000600082015250565b60006113b8601d83610e32565b91506113c382611382565b602082019050919050565b600060208201905081810360008301526113e7816113ab565b9050919050565b7f45524332303a207472616e736665722066726f6d20746865207a65726f20616460008201527f6472657373000000000000000000000000000000000000000000000000000000602082015250565b600061144a602583610e32565b9150611455826113ee565b604082019050919050565b600060208201905081810360008301526114798161143d565b9050919050565b7f45524332303a207472616e7366657220746f20746865207a65726f206164647260008201527f6573730000000000000000000000000000000000000000000000000000000000602082015250565b60006114dc602383610e32565b91506114e782611480565b604082019050919050565b6000602082019050818103600083015261150b816114cf565b9050919050565b7f45524332303a207472616e7366657220616d6f756e742065786365656473206260008201527f616c616e63650000000000000000000000000000000000000000000000000000602082015250565b600061156e602683610e32565b915061157982611512565b604082019050919050565b6000602082019050818103600083015261159d81611561565b9050919050565b7f45524332303a206d696e7420746f20746865207a65726f206164647265737300600082015250565b60006115da601f83610e32565b91506115e5826115a4565b602082019050919050565b60006020820190508181036000830152611609816115cd565b9050919050565b7f45524332303a206275726e2066726f6d20746865207a65726f2061646472657360008201527f7300000000000000000000000000000000000000000000000000000000000000602082015250565b600061166c602183610e32565b915061167782611610565b604082019050919050565b6000602082019050818103600083015261169b8161165f565b9050919050565b7f45524332303a206275726e20616d6f756e7420657863656564732062616c616e60008201527f6365000000000000000000000000000000000000000000000000000000000000602082015250565b60006116fe602283610e32565b9150611709826116a2565b604082019050919050565b6000602082019050818103600083015261172d816116f1565b905091905056fea264697066735822122098480c5bdefa24f7f7a1e8427dd1a64c27fb4b5c85200b73f64df17330f4529664736f6c63430008110033",
  "linkReferences": {},
  "deployedLinkReferences": {}
}