{
  "_format": "hh-sol-artifact-1",
  "contractName": "TokenERC721",
  "sourceName": "contracts/TokenERC721.sol",
  "abi": [
    {
      "inputs": [
        {
          "internalType": "string",
          "name": "name",
          "type": "string"
        },
        {
          "internalType": "string",
          "name": "symbol",
          "type": "string"
        },
        {
          "internalType": "address",
          "name": "_ERC20Address",
          "type": "address"
        }
      ],
      "stateMutability": "nonpayable",
      "type": "constructor"
    },
    {
      "anonymous": false,
      "inputs": [
        {
          "indexed": true,
          "internalType": "address",
          "name": "owner",
          "type": "address"
        },
        {
          "indexed": true,
          "internalType": "address",
          "name": "approved",
          "type": "address"
        },
        {
          "indexed": true,
          "internalType": "uint256",
          "name": "tokenId",
          "type": "uint256"
        }
      ],
      "name": "Approval",
      "type": "event"
    },
    {
      "anonymous": false,
      "inputs": [
        {
          "indexed": true,
          "internalType": "address",
          "name": "owner",
          "type": "address"
        },
        {
          "indexed": true,
          "internalType": "address",
          "name": "operator",
          "type": "address"
        },
        {
          "indexed": false,
          "internalType": "bool",
          "name": "approved",
          "type": "bool"
        }
      ],
      "name": "ApprovalForAll",
      "type": "event"
    },
    {
      "anonymous": false,
      "inputs": [
        {
          "indexed": true,
          "internalType": "address",
          "name": "from",
          "type": "address"
        },
        {
          "indexed": true,
          "internalType": "address",
          "name": "to",
          "type": "address"
        },
        {
          "indexed": true,
          "internalType": "uint256",
          "name": "tokenId",
          "type": "uint256"
        }
      ],
      "name": "Transfer",
      "type": "event"
    },
    {
      "inputs": [
        {
          "internalType": "address",
          "name": "to",
          "type": "address"
        },
        {
          "internalType": "uint256",
          "name": "tokenId",
          "type": "uint256"
        }
      ],
      "name": "approve",
      "outputs": [],
      "stateMutability": "nonpayable",
      "type": "function"
    },
    {
      "inputs": [
        {
          "internalType": "address",
          "name": "owner",
          "type": "address"
        }
      ],
      "name": "balanceOf",
      "outputs": [
        {
          "internalType": "uint256",
          "name": "",
          "type": "uint256"
        }
      ],
      "stateMutability": "view",
      "type": "function"
    },
    {
      "inputs": [
        {
          "internalType": "uint256",
          "name": "amount",
          "type": "uint256"
        }
      ],
      "name": "deposit",
      "outputs": [],
      "stateMutability": "nonpayable",
      "type": "function"
    },
    {
      "inputs": [
        {
          "internalType": "uint256",
          "name": "tokenId",
          "type": "uint256"
        }
      ],
      "name": "getApproved",
      "outputs": [
        {
          "internalType": "address",
          "name": "",
          "type": "address"
        }
      ],
      "stateMutability": "view",
      "type": "function"
    },
    {
      "inputs": [],
      "name": "getMyDeposit",
      "outputs": [
        {
          "internalType": "uint256",
          "name": "",
          "type": "uint256"
        }
      ],
      "stateMutability": "view",
      "type": "function"
    },
    {
      "inputs": [],
      "name": "getMyTokenIds",
      "outputs": [
        {
          "internalType": "uint256[]",
          "name": "",
          "type": "uint256[]"
        }
      ],
      "stateMutability": "view",
      "type": "function"
    },
    {
      "inputs": [
        {
          "internalType": "address",
          "name": "owner",
          "type": "address"
        },
        {
          "internalType": "address",
          "name": "operator",
          "type": "address"
        }
      ],
      "name": "isApprovedForAll",
      "outputs": [
        {
          "internalType": "bool",
          "name": "",
          "type": "bool"
        }
      ],
      "stateMutability": "view",
      "type": "function"
    },
    {
      "inputs": [
        {
          "internalType": "address",
          "name": "to",
          "type": "address"
        },
        {
          "internalType": "uint256",
          "name": "tokenId",
          "type": "uint256"
        }
      ],
      "name": "mint",
      "outputs": [],
      "stateMutability": "nonpayable",
      "type": "function"
    },
    {
      "inputs": [],
      "name": "name",
      "outputs": [
        {
          "internalType": "string",
          "name": "",
          "type": "string"
        }
      ],
      "stateMutability": "view",
      "type": "function"
    },
    {
      "inputs": [
        {
          "internalType": "uint256",
          "name": "tokenId",
          "type": "uint256"
        }
      ],
      "name": "ownerOf",
      "outputs": [
        {
          "internalType": "address",
          "name": "",
          "type": "address"
        }
      ],
      "stateMutability": "view",
      "type": "function"
    },
    {
      "inputs": [
        {
          "internalType": "address",
          "name": "from",
          "type": "address"
        },
        {
          "internalType": "address",
          "name": "to",
          "type": "address"
        },
        {
          "internalType": "uint256",
          "name": "tokenId",
          "type": "uint256"
        }
      ],
      "name": "safeTransferFrom",
      "outputs": [],
      "stateMutability": "nonpayable",
      "type": "function"
    },
    {
      "inputs": [
        {
          "internalType": "address",
          "name": "from",
          "type": "address"
        },
        {
          "internalType": "address",
          "name": "to",
          "type": "address"
        },
        {
          "internalType": "uint256",
          "name": "tokenId",
          "type": "uint256"
        },
        {
          "internalType": "bytes",
          "name": "data",
          "type": "bytes"
        }
      ],
      "name": "safeTransferFrom",
      "outputs": [],
      "stateMutability": "nonpayable",
      "type": "function"
    },
    {
      "inputs": [
        {
          "internalType": "address",
          "name": "operator",
          "type": "address"
        },
        {
          "internalType": "bool",
          "name": "approved",
          "type": "bool"
        }
      ],
      "name": "setApprovalForAll",
      "outputs": [],
      "stateMutability": "nonpayable",
      "type": "function"
    },
    {
      "inputs": [
        {
          "internalType": "bytes4",
          "name": "interfaceId",
          "type": "bytes4"
        }
      ],
      "name": "supportsInterface",
      "outputs": [
        {
          "internalType": "bool",
          "name": "",
          "type": "bool"
        }
      ],
      "stateMutability": "view",
      "type": "function"
    },
    {
      "inputs": [],
      "name": "symbol",
      "outputs": [
        {
          "internalType": "string",
          "name": "",
          "type": "string"
        }
      ],
      "stateMutability": "view",
      "type": "function"
    },
    {
      "inputs": [
        {
          "internalType": "uint256",
          "name": "tokenId",
          "type": "uint256"
        }
      ],
      "name": "tokenURI",
      "outputs": [
        {
          "internalType": "string",
          "name": "",
          "type": "string"
        }
      ],
      "stateMutability": "view",
      "type": "function"
    },
    {
      "inputs": [],
      "name": "totalSupply",
      "outputs": [
        {
          "internalType": "uint256",
          "name": "",
          "type": "uint256"
        }
      ],
      "stateMutability": "view",
      "type": "function"
    },
    {
      "inputs": [
        {
          "internalType": "address",
          "name": "from",
          "type": "address"
        },
        {
          "internalType": "address",
          "name": "to",
          "type": "address"
        },
        {
          "internalType": "uint256",
          "name": "tokenId",
          "type": "uint256"
        }
      ],
      "name": "transferFrom",
      "outputs": [],
      "stateMutability": "nonpayable",
      "type": "function"
    }
  ],
  "bytecode": "0x608060405260006008553480156200001657600080fd5b50604051620030d5380380620030d583398181016040528101906200003c9190620002a6565b828281600090816200004f91906200058b565b5080600190816200006191906200058b565b50505080600660006101000a81548173ffffffffffffffffffffffffffffffffffffffff021916908373ffffffffffffffffffffffffffffffffffffffff16021790555050505062000672565b6000604051905090565b600080fd5b600080fd5b600080fd5b600080fd5b6000601f19601f8301169050919050565b7f4e487b7100000000000000000000000000000000000000000000000000000000600052604160045260246000fd5b6200011782620000cc565b810181811067ffffffffffffffff82111715620001395762000138620000dd565b5b80604052505050565b60006200014e620000ae565b90506200015c82826200010c565b919050565b600067ffffffffffffffff8211156200017f576200017e620000dd565b5b6200018a82620000cc565b9050602081019050919050565b60005b83811015620001b75780820151818401526020810190506200019a565b60008484015250505050565b6000620001da620001d48462000161565b62000142565b905082815260208101848484011115620001f957620001f8620000c7565b5b6200020684828562000197565b509392505050565b600082601f830112620002265762000225620000c2565b5b815162000238848260208601620001c3565b91505092915050565b600073ffffffffffffffffffffffffffffffffffffffff82169050919050565b60006200026e8262000241565b9050919050565b620002808162000261565b81146200028c57600080fd5b50565b600081519050620002a08162000275565b92915050565b600080600060608486031215620002c257620002c1620000b8565b5b600084015167ffffffffffffffff811115620002e357620002e2620000bd565b5b620002f1868287016200020e565b935050602084015167ffffffffffffffff811115620003155762000314620000bd565b5b62000323868287016200020e565b925050604062000336868287016200028f565b9150509250925092565b600081519050919050565b7f4e487b7100000000000000000000000000000000000000000000000000000000600052602260045260246000fd5b600060028204905060018216806200039357607f821691505b602082108103620003a957620003a86200034b565b5b50919050565b60008190508160005260206000209050919050565b60006020601f8301049050919050565b600082821b905092915050565b600060088302620004137fffffffffffffffffffffffffffffffffffffffffffffffffffffffffffffffff82620003d4565b6200041f8683620003d4565b95508019841693508086168417925050509392505050565b6000819050919050565b6000819050919050565b60006200046c62000466620004608462000437565b62000441565b62000437565b9050919050565b6000819050919050565b62000488836200044b565b620004a0620004978262000473565b848454620003e1565b825550505050565b600090565b620004b7620004a8565b620004c48184846200047d565b505050565b5b81811015620004ec57620004e0600082620004ad565b600181019050620004ca565b5050565b601f8211156200053b576200050581620003af565b6200051084620003c4565b8101602085101562000520578190505b620005386200052f85620003c4565b830182620004c9565b50505b505050565b600082821c905092915050565b6000620005606000198460080262000540565b1980831691505092915050565b60006200057b83836200054d565b9150826002028217905092915050565b620005968262000340565b67ffffffffffffffff811115620005b257620005b1620000dd565b5b620005be82546200037a565b620005cb828285620004f0565b600060209050601f831160018114620006035760008415620005ee578287015190505b620005fa85826200056d565b8655506200066a565b601f1984166200061386620003af565b60005b828110156200063d5784890151825560018201915060208501945060208101905062000616565b868310156200065d578489015162000659601f8916826200054d565b8355505b6001600288020188555050505b505050505050565b612a5380620006826000396000f3fe608060405234801561001057600080fd5b50600436106101165760003560e01c806370a08231116100a2578063b6b55f2511610071578063b6b55f25146102df578063b88d4fde146102fb578063c87b56dd14610317578063e985e9c514610347578063f41359921461037757610116565b806370a08231146102575780637ba0ca0d1461028757806395d89b41146102a5578063a22cb465146102c357610116565b806318160ddd116100e957806318160ddd146101b557806323b872dd146101d357806340c10f19146101ef57806342842e0e1461020b5780636352211e1461022757610116565b806301ffc9a71461011b57806306fdde031461014b578063081812fc14610169578063095ea7b314610199575b600080fd5b61013560048036038101906101309190611b07565b610395565b6040516101429190611b4f565b60405180910390f35b610153610477565b6040516101609190611bfa565b60405180910390f35b610183600480360381019061017e9190611c52565b610509565b6040516101909190611cc0565b60405180910390f35b6101b360048036038101906101ae9190611d07565b61054f565b005b6101bd610666565b6040516101ca9190611d56565b60405180910390f35b6101ed60048036038101906101e89190611d71565b61066c565b005b61020960048036038101906102049190611d07565b6106cc565b005b61022560048036038101906102209190611d71565b6106da565b005b610241600480360381019061023c9190611c52565b6106fa565b60405161024e9190611cc0565b60405180910390f35b610271600480360381019061026c9190611dc4565b610780565b60405161027e9190611d56565b60405180910390f35b61028f610837565b60405161029c9190611eaf565b60405180910390f35b6102ad610920565b6040516102ba9190611bfa565b60405180910390f35b6102dd60048036038101906102d89190611efd565b6109b2565b005b6102f960048036038101906102f49190611c52565b6109c8565b005b61031560048036038101906103109190612072565b610a64565b005b610331600480360381019061032c9190611c52565b610ac6565b60405161033e9190611bfa565b60405180910390f35b610361600480360381019061035c91906120f5565b610b2e565b60405161036e9190611b4f565b60405180910390f35b61037f610bc2565b60405161038c9190611d56565b60405180910390f35b60007f80ac58cd000000000000000000000000000000000000000000000000000000007bffffffffffffffffffffffffffffffffffffffffffffffffffffffff1916827bffffffffffffffffffffffffffffffffffffffffffffffffffffffff1916148061046057507f5b5e139f000000000000000000000000000000000000000000000000000000007bffffffffffffffffffffffffffffffffffffffffffffffffffffffff1916827bffffffffffffffffffffffffffffffffffffffffffffffffffffffff1916145b80610470575061046f82610c09565b5b9050919050565b60606000805461048690612164565b80601f01602080910402602001604051908101604052809291908181526020018280546104b290612164565b80156104ff5780601f106104d4576101008083540402835291602001916104ff565b820191906000526020600020905b8154815290600101906020018083116104e257829003601f168201915b5050505050905090565b600061051482610c73565b6004600083815260200190815260200160002060009054906101000a900473ffffffffffffffffffffffffffffffffffffffff169050919050565b600061055a826106fa565b90508073ffffffffffffffffffffffffffffffffffffffff168373ffffffffffffffffffffffffffffffffffffffff16036105ca576040517f08c379a00000000000000000000000000000000000000000000000000000000081526004016105c190612207565b60405180910390fd5b8073ffffffffffffffffffffffffffffffffffffffff166105e9610cbe565b73ffffffffffffffffffffffffffffffffffffffff161480610618575061061781610612610cbe565b610b2e565b5b610657576040517f08c379a000000000000000000000000000000000000000000000000000000000815260040161064e90612299565b60405180910390fd5b6106618383610cc6565b505050565b60085481565b61067d610677610cbe565b82610d7f565b6106bc576040517f08c379a00000000000000000000000000000000000000000000000000000000081526004016106b39061232b565b60405180910390fd5b6106c7838383610e14565b505050565b6106d6828261110d565b5050565b6106f583838360405180602001604052806000815250610a64565b505050565b6000806107068361132a565b9050600073ffffffffffffffffffffffffffffffffffffffff168173ffffffffffffffffffffffffffffffffffffffff1603610777576040517f08c379a000000000000000000000000000000000000000000000000000000000815260040161076e90612397565b60405180910390fd5b80915050919050565b60008073ffffffffffffffffffffffffffffffffffffffff168273ffffffffffffffffffffffffffffffffffffffff16036107f0576040517f08c379a00000000000000000000000000000000000000000000000000000000081526004016107e790612429565b60405180910390fd5b600360008373ffffffffffffffffffffffffffffffffffffffff1673ffffffffffffffffffffffffffffffffffffffff168152602001908152602001600020549050919050565b6060600061084433610780565b67ffffffffffffffff81111561085d5761085c611f47565b5b60405190808252806020026020018201604052801561088b5781602001602082028036833780820191505090505b5090506000805b600854811015610917573373ffffffffffffffffffffffffffffffffffffffff166108bc826106fa565b73ffffffffffffffffffffffffffffffffffffffff160361090457808383806108e490612478565b9450815181106108f7576108f66124c0565b5b6020026020010181815250505b808061090f90612478565b915050610892565b50819250505090565b60606001805461092f90612164565b80601f016020809104026020016040519081016040528092919081815260200182805461095b90612164565b80156109a85780601f1061097d576101008083540402835291602001916109a8565b820191906000526020600020905b81548152906001019060200180831161098b57829003601f168201915b5050505050905090565b6109c46109bd610cbe565b8383611367565b5050565b600660009054906101000a900473ffffffffffffffffffffffffffffffffffffffff1673ffffffffffffffffffffffffffffffffffffffff166379cc679033836040518363ffffffff1660e01b8152600401610a259291906124ef565b600060405180830381600087803b158015610a3f57600080fd5b505af1158015610a53573d6000803e3d6000fd5b50505050610a6133826114d3565b50565b610a75610a6f610cbe565b83610d7f565b610ab4576040517f08c379a0000000000000000000000000000000000000000000000000000000008152600401610aab9061232b565b60405180910390fd5b610ac084848484611610565b50505050565b6060610ad182610c73565b6000610adb61166c565b90506000815111610afb5760405180602001604052806000815250610b26565b80610b0584611683565b604051602001610b16929190612554565b6040516020818303038152906040525b915050919050565b6000600560008473ffffffffffffffffffffffffffffffffffffffff1673ffffffffffffffffffffffffffffffffffffffff16815260200190815260200160002060008373ffffffffffffffffffffffffffffffffffffffff1673ffffffffffffffffffffffffffffffffffffffff16815260200190815260200160002060009054906101000a900460ff16905092915050565b6000600760003373ffffffffffffffffffffffffffffffffffffffff1673ffffffffffffffffffffffffffffffffffffffff16815260200190815260200160002054905090565b60007f01ffc9a7000000000000000000000000000000000000000000000000000000007bffffffffffffffffffffffffffffffffffffffffffffffffffffffff1916827bffffffffffffffffffffffffffffffffffffffffffffffffffffffff1916149050919050565b610c7c81611751565b610cbb576040517f08c379a0000000000000000000000000000000000000000000000000000000008152600401610cb290612397565b60405180910390fd5b50565b600033905090565b816004600083815260200190815260200160002060006101000a81548173ffffffffffffffffffffffffffffffffffffffff021916908373ffffffffffffffffffffffffffffffffffffffff160217905550808273ffffffffffffffffffffffffffffffffffffffff16610d39836106fa565b73ffffffffffffffffffffffffffffffffffffffff167f8c5be1e5ebec7d5bd14f71427d1e84f3dd0314c0f7b2291e5b200ac8c7c3b92560405160405180910390a45050565b600080610d8b836106fa565b90508073ffffffffffffffffffffffffffffffffffffffff168473ffffffffffffffffffffffffffffffffffffffff161480610dcd5750610dcc8185610b2e565b5b80610e0b57508373ffffffffffffffffffffffffffffffffffffffff16610df384610509565b73ffffffffffffffffffffffffffffffffffffffff16145b91505092915050565b8273ffffffffffffffffffffffffffffffffffffffff16610e34826106fa565b73ffffffffffffffffffffffffffffffffffffffff1614610e8a576040517f08c379a0000000000000000000000000000000000000000000000000000000008152600401610e81906125ea565b60405180910390fd5b600073ffffffffffffffffffffffffffffffffffffffff168273ffffffffffffffffffffffffffffffffffffffff1603610ef9576040517f08c379a0000000000000000000000000000000000000000000000000000000008152600401610ef09061267c565b60405180910390fd5b610f068383836001611792565b8273ffffffffffffffffffffffffffffffffffffffff16610f26826106fa565b73ffffffffffffffffffffffffffffffffffffffff1614610f7c576040517f08c379a0000000000000000000000000000000000000000000000000000000008152600401610f73906125ea565b60405180910390fd5b6004600082815260200190815260200160002060006101000a81549073ffffffffffffffffffffffffffffffffffffffff02191690556001600360008573ffffffffffffffffffffffffffffffffffffffff1673ffffffffffffffffffffffffffffffffffffffff168152602001908152602001600020600082825403925050819055506001600360008473ffffffffffffffffffffffffffffffffffffffff1673ffffffffffffffffffffffffffffffffffffffff16815260200190815260200160002060008282540192505081905550816002600083815260200190815260200160002060006101000a81548173ffffffffffffffffffffffffffffffffffffffff021916908373ffffffffffffffffffffffffffffffffffffffff160217905550808273ffffffffffffffffffffffffffffffffffffffff168473ffffffffffffffffffffffffffffffffffffffff167fddf252ad1be2c89b69c2b068fc378daa952ba7f163c4a11628f55a4df523b3ef60405160405180910390a46111088383836001611798565b505050565b600073ffffffffffffffffffffffffffffffffffffffff168273ffffffffffffffffffffffffffffffffffffffff160361117c576040517f08c379a0000000000000000000000000000000000000000000000000000000008152600401611173906126e8565b60405180910390fd5b61118581611751565b156111c5576040517f08c379a00000000000000000000000000000000000000000000000000000000081526004016111bc90612754565b60405180910390fd5b6111d3600083836001611792565b6111dc81611751565b1561121c576040517f08c379a000000000000000000000000000000000000000000000000000000000815260040161121390612754565b60405180910390fd5b6001600360008473ffffffffffffffffffffffffffffffffffffffff1673ffffffffffffffffffffffffffffffffffffffff16815260200190815260200160002060008282540192505081905550816002600083815260200190815260200160002060006101000a81548173ffffffffffffffffffffffffffffffffffffffff021916908373ffffffffffffffffffffffffffffffffffffffff160217905550808273ffffffffffffffffffffffffffffffffffffffff16600073ffffffffffffffffffffffffffffffffffffffff167fddf252ad1be2c89b69c2b068fc378daa952ba7f163c4a11628f55a4df523b3ef60405160405180910390a4611326600083836001611798565b5050565b60006002600083815260200190815260200160002060009054906101000a900473ffffffffffffffffffffffffffffffffffffffff169050919050565b8173ffffffffffffffffffffffffffffffffffffffff168373ffffffffffffffffffffffffffffffffffffffff16036113d5576040517f08c379a00000000000000000000000000000000000000000000000000000000081526004016113cc906127c0565b60405180910390fd5b80600560008573ffffffffffffffffffffffffffffffffffffffff1673ffffffffffffffffffffffffffffffffffffffff16815260200190815260200160002060008473ffffffffffffffffffffffffffffffffffffffff1673ffffffffffffffffffffffffffffffffffffffff16815260200190815260200160002060006101000a81548160ff0219169083151502179055508173ffffffffffffffffffffffffffffffffffffffff168373ffffffffffffffffffffffffffffffffffffffff167f17307eab39ab6107e8899845ad3d59bd9653f200f220920489ca2b5937696c31836040516114c69190611b4f565b60405180910390a3505050565b80600760008473ffffffffffffffffffffffffffffffffffffffff1673ffffffffffffffffffffffffffffffffffffffff168152602001908152602001600020600082825461152291906127e0565b9250508190555060005b6103e8600760008573ffffffffffffffffffffffffffffffffffffffff1673ffffffffffffffffffffffffffffffffffffffff168152602001908152602001600020546115799190612843565b81101561160b576103e8600760008573ffffffffffffffffffffffffffffffffffffffff1673ffffffffffffffffffffffffffffffffffffffff16815260200190815260200160002060008282546115d19190612874565b925050819055506115f883600860008154809291906115ef90612478565b919050556106cc565b808061160390612478565b91505061152c565b505050565b61161b848484610e14565b6116278484848461179e565b611666576040517f08c379a000000000000000000000000000000000000000000000000000000000815260040161165d9061291a565b60405180910390fd5b50505050565b606060405180602001604052806000815250905090565b60606000600161169284611925565b01905060008167ffffffffffffffff8111156116b1576116b0611f47565b5b6040519080825280601f01601f1916602001820160405280156116e35781602001600182028036833780820191505090505b509050600082602001820190505b600115611746578080600190039150507f3031323334353637383961626364656600000000000000000000000000000000600a86061a8153600a858161173a57611739612814565b5b049450600085036116f1575b819350505050919050565b60008073ffffffffffffffffffffffffffffffffffffffff166117738361132a565b73ffffffffffffffffffffffffffffffffffffffff1614159050919050565b50505050565b50505050565b60006117bf8473ffffffffffffffffffffffffffffffffffffffff16611a78565b15611918578373ffffffffffffffffffffffffffffffffffffffff1663150b7a026117e8610cbe565b8786866040518563ffffffff1660e01b815260040161180a949392919061298f565b6020604051808303816000875af192505050801561184657506040513d601f19601f8201168201806040525081019061184391906129f0565b60015b6118c8573d8060008114611876576040519150601f19603f3d011682016040523d82523d6000602084013e61187b565b606091505b5060008151036118c0576040517f08c379a00000000000000000000000000000000000000000000000000000000081526004016118b79061291a565b60405180910390fd5b805181602001fd5b63150b7a0260e01b7bffffffffffffffffffffffffffffffffffffffffffffffffffffffff1916817bffffffffffffffffffffffffffffffffffffffffffffffffffffffff19161491505061191d565b600190505b949350505050565b600080600090507a184f03e93ff9f4daa797ed6e38ed64bf6a1f0100000000000000008310611983577a184f03e93ff9f4daa797ed6e38ed64bf6a1f010000000000000000838161197957611978612814565b5b0492506040810190505b6d04ee2d6d415b85acef810000000083106119c0576d04ee2d6d415b85acef810000000083816119b6576119b5612814565b5b0492506020810190505b662386f26fc1000083106119ef57662386f26fc1000083816119e5576119e4612814565b5b0492506010810190505b6305f5e1008310611a18576305f5e1008381611a0e57611a0d612814565b5b0492506008810190505b6127108310611a3d576127108381611a3357611a32612814565b5b0492506004810190505b60648310611a605760648381611a5657611a55612814565b5b0492506002810190505b600a8310611a6f576001810190505b80915050919050565b6000808273ffffffffffffffffffffffffffffffffffffffff163b119050919050565b6000604051905090565b600080fd5b600080fd5b60007fffffffff0000000000000000000000000000000000000000000000000000000082169050919050565b611ae481611aaf565b8114611aef57600080fd5b50565b600081359050611b0181611adb565b92915050565b600060208284031215611b1d57611b1c611aa5565b5b6000611b2b84828501611af2565b91505092915050565b60008115159050919050565b611b4981611b34565b82525050565b6000602082019050611b646000830184611b40565b92915050565b600081519050919050565b600082825260208201905092915050565b60005b83811015611ba4578082015181840152602081019050611b89565b60008484015250505050565b6000601f19601f8301169050919050565b6000611bcc82611b6a565b611bd68185611b75565b9350611be6818560208601611b86565b611bef81611bb0565b840191505092915050565b60006020820190508181036000830152611c148184611bc1565b905092915050565b6000819050919050565b611c2f81611c1c565b8114611c3a57600080fd5b50565b600081359050611c4c81611c26565b92915050565b600060208284031215611c6857611c67611aa5565b5b6000611c7684828501611c3d565b91505092915050565b600073ffffffffffffffffffffffffffffffffffffffff82169050919050565b6000611caa82611c7f565b9050919050565b611cba81611c9f565b82525050565b6000602082019050611cd56000830184611cb1565b92915050565b611ce481611c9f565b8114611cef57600080fd5b50565b600081359050611d0181611cdb565b92915050565b60008060408385031215611d1e57611d1d611aa5565b5b6000611d2c85828601611cf2565b9250506020611d3d85828601611c3d565b9150509250929050565b611d5081611c1c565b82525050565b6000602082019050611d6b6000830184611d47565b92915050565b600080600060608486031215611d8a57611d89611aa5565b5b6000611d9886828701611cf2565b9350506020611da986828701611cf2565b9250506040611dba86828701611c3d565b9150509250925092565b600060208284031215611dda57611dd9611aa5565b5b6000611de884828501611cf2565b91505092915050565b600081519050919050565b600082825260208201905092915050565b6000819050602082019050919050565b611e2681611c1c565b82525050565b6000611e388383611e1d565b60208301905092915050565b6000602082019050919050565b6000611e5c82611df1565b611e668185611dfc565b9350611e7183611e0d565b8060005b83811015611ea2578151611e898882611e2c565b9750611e9483611e44565b925050600181019050611e75565b5085935050505092915050565b60006020820190508181036000830152611ec98184611e51565b905092915050565b611eda81611b34565b8114611ee557600080fd5b50565b600081359050611ef781611ed1565b92915050565b60008060408385031215611f1457611f13611aa5565b5b6000611f2285828601611cf2565b9250506020611f3385828601611ee8565b9150509250929050565b600080fd5b600080fd5b7f4e487b7100000000000000000000000000000000000000000000000000000000600052604160045260246000fd5b611f7f82611bb0565b810181811067ffffffffffffffff82111715611f9e57611f9d611f47565b5b80604052505050565b6000611fb1611a9b565b9050611fbd8282611f76565b919050565b600067ffffffffffffffff821115611fdd57611fdc611f47565b5b611fe682611bb0565b9050602081019050919050565b82818337600083830152505050565b600061201561201084611fc2565b611fa7565b90508281526020810184848401111561203157612030611f42565b5b61203c848285611ff3565b509392505050565b600082601f83011261205957612058611f3d565b5b8135612069848260208601612002565b91505092915050565b6000806000806080858703121561208c5761208b611aa5565b5b600061209a87828801611cf2565b94505060206120ab87828801611cf2565b93505060406120bc87828801611c3d565b925050606085013567ffffffffffffffff8111156120dd576120dc611aaa565b5b6120e987828801612044565b91505092959194509250565b6000806040838503121561210c5761210b611aa5565b5b600061211a85828601611cf2565b925050602061212b85828601611cf2565b9150509250929050565b7f4e487b7100000000000000000000000000000000000000000000000000000000600052602260045260246000fd5b6000600282049050600182168061217c57607f821691505b60208210810361218f5761218e612135565b5b50919050565b7f4552433732313a20617070726f76616c20746f2063757272656e74206f776e6560008201527f7200000000000000000000000000000000000000000000000000000000000000602082015250565b60006121f1602183611b75565b91506121fc82612195565b604082019050919050565b60006020820190508181036000830152612220816121e4565b9050919050565b7f4552433732313a20617070726f76652063616c6c6572206973206e6f7420746f60008201527f6b656e206f776e6572206f7220617070726f76656420666f7220616c6c000000602082015250565b6000612283603d83611b75565b915061228e82612227565b604082019050919050565b600060208201905081810360008301526122b281612276565b9050919050565b7f4552433732313a2063616c6c6572206973206e6f7420746f6b656e206f776e6560008201527f72206f7220617070726f76656400000000000000000000000000000000000000602082015250565b6000612315602d83611b75565b9150612320826122b9565b604082019050919050565b6000602082019050818103600083015261234481612308565b9050919050565b7f4552433732313a20696e76616c696420746f6b656e2049440000000000000000600082015250565b6000612381601883611b75565b915061238c8261234b565b602082019050919050565b600060208201905081810360008301526123b081612374565b9050919050565b7f4552433732313a2061646472657373207a65726f206973206e6f74206120766160008201527f6c6964206f776e65720000000000000000000000000000000000000000000000602082015250565b6000612413602983611b75565b915061241e826123b7565b604082019050919050565b6000602082019050818103600083015261244281612406565b9050919050565b7f4e487b7100000000000000000000000000000000000000000000000000000000600052601160045260246000fd5b600061248382611c1c565b91507fffffffffffffffffffffffffffffffffffffffffffffffffffffffffffffffff82036124b5576124b4612449565b5b600182019050919050565b7f4e487b7100000000000000000000000000000000000000000000000000000000600052603260045260246000fd5b60006040820190506125046000830185611cb1565b6125116020830184611d47565b9392505050565b600081905092915050565b600061252e82611b6a565b6125388185612518565b9350612548818560208601611b86565b80840191505092915050565b60006125608285612523565b915061256c8284612523565b91508190509392505050565b7f4552433732313a207472616e736665722066726f6d20696e636f72726563742060008201527f6f776e6572000000000000000000000000000000000000000000000000000000602082015250565b60006125d4602583611b75565b91506125df82612578565b604082019050919050565b60006020820190508181036000830152612603816125c7565b9050919050565b7f4552433732313a207472616e7366657220746f20746865207a65726f2061646460008201527f7265737300000000000000000000000000000000000000000000000000000000602082015250565b6000612666602483611b75565b91506126718261260a565b604082019050919050565b6000602082019050818103600083015261269581612659565b9050919050565b7f4552433732313a206d696e7420746f20746865207a65726f2061646472657373600082015250565b60006126d2602083611b75565b91506126dd8261269c565b602082019050919050565b60006020820190508181036000830152612701816126c5565b9050919050565b7f4552433732313a20746f6b656e20616c7265616479206d696e74656400000000600082015250565b600061273e601c83611b75565b915061274982612708565b602082019050919050565b6000602082019050818103600083015261276d81612731565b9050919050565b7f4552433732313a20617070726f766520746f2063616c6c657200000000000000600082015250565b60006127aa601983611b75565b91506127b582612774565b602082019050919050565b600060208201905081810360008301526127d98161279d565b9050919050565b60006127eb82611c1c565b91506127f683611c1c565b925082820190508082111561280e5761280d612449565b5b92915050565b7f4e487b7100000000000000000000000000000000000000000000000000000000600052601260045260246000fd5b600061284e82611c1c565b915061285983611c1c565b92508261286957612868612814565b5b828204905092915050565b600061287f82611c1c565b915061288a83611c1c565b92508282039050818111156128a2576128a1612449565b5b92915050565b7f4552433732313a207472616e7366657220746f206e6f6e20455243373231526560008201527f63656976657220696d706c656d656e7465720000000000000000000000000000602082015250565b6000612904603283611b75565b915061290f826128a8565b604082019050919050565b60006020820190508181036000830152612933816128f7565b9050919050565b600081519050919050565b600082825260208201905092915050565b60006129618261293a565b61296b8185612945565b935061297b818560208601611b86565b61298481611bb0565b840191505092915050565b60006080820190506129a46000830187611cb1565b6129b16020830186611cb1565b6129be6040830185611d47565b81810360608301526129d08184612956565b905095945050505050565b6000815190506129ea81611adb565b92915050565b600060208284031215612a0657612a05611aa5565b5b6000612a14848285016129db565b9150509291505056fea26469706673582212206ea7e945a3578d245e4e03ceda5f0a2ff9d639f1757dde38a23a8bbddc37fca464736f6c63430008110033",
  "linkReferences": {},
  "deployedLinkReferences": {}
}