{
  "_format": "hh-sol-artifact-1",
  "contractName": "TokenERC20",
  "sourceName": "contracts/TokenERC20.sol",
  "abi": [
    {
      "inputs": [
        {
          "internalType": "string",
          "name": "name",
          "type": "string"
        },
        {
          "internalType": "string",
          "name": "symbol",
          "type": "string"
        }
      ],
      "stateMutability": "nonpayable",
      "type": "constructor"
    },
    {
      "anonymous": false,
      "inputs": [
        {
          "indexed": true,
          "internalType": "address",
          "name": "owner",
          "type": "address"
        },
        {
          "indexed": true,
          "internalType": "address",
          "name": "spender",
          "type": "address"
        },
        {
          "indexed": false,
          "internalType": "uint256",
          "name": "value",
          "type": "uint256"
        }
      ],
      "name": "Approval",
      "type": "event"
    },
    {
      "anonymous": false,
      "inputs": [
        {
          "indexed": true,
          "internalType": "address",
          "name": "from",
          "type": "address"
        },
        {
          "indexed": true,
          "internalType": "address",
          "name": "to",
          "type": "address"
        },
        {
          "indexed": false,
          "internalType": "uint256",
          "name": "value",
          "type": "uint256"
        }
      ],
      "name": "Transfer",
      "type": "event"
    },
    {
      "inputs": [
        {
          "internalType": "address",
          "name": "owner",
          "type": "address"
        },
        {
          "internalType": "address",
          "name": "spender",
          "type": "address"
        }
      ],
      "name": "allowance",
      "outputs": [
        {
          "internalType": "uint256",
          "name": "",
          "type": "uint256"
        }
      ],
      "stateMutability": "view",
      "type": "function"
    },
    {
      "inputs": [
        {
          "internalType": "address",
          "name": "spender",
          "type": "address"
        },
        {
          "internalType": "uint256",
          "name": "amount",
          "type": "uint256"
        }
      ],
      "name": "approve",
      "outputs": [
        {
          "internalType": "bool",
          "name": "",
          "type": "bool"
        }
      ],
      "stateMutability": "nonpayable",
      "type": "function"
    },
    {
      "inputs": [
        {
          "internalType": "address",
          "name": "account",
          "type": "address"
        }
      ],
      "name": "balanceOf",
      "outputs": [
        {
          "internalType": "uint256",
          "name": "",
          "type": "uint256"
        }
      ],
      "stateMutability": "view",
      "type": "function"
    },
    {
      "inputs": [
        {
          "internalType": "address",
          "name": "account",
          "type": "address"
        },
        {
          "internalType": "uint256",
          "name": "amount",
          "type": "uint256"
        }
      ],
      "name": "burnFrom",
      "outputs": [],
      "stateMutability": "nonpayable",
      "type": "function"
    },
    {
      "inputs": [],
      "name": "decimals",
      "outputs": [
        {
          "internalType": "uint8",
          "name": "",
          "type": "uint8"
        }
      ],
      "stateMutability": "pure",
      "type": "function"
    },
    {
      "inputs": [
        {
          "internalType": "address",
          "name": "spender",
          "type": "address"
        },
        {
          "internalType": "uint256",
          "name": "subtractedValue",
          "type": "uint256"
        }
      ],
      "name": "decreaseAllowance",
      "outputs": [
        {
          "internalType": "bool",
          "name": "",
          "type": "bool"
        }
      ],
      "stateMutability": "nonpayable",
      "type": "function"
    },
    {
      "inputs": [
        {
          "internalType": "address",
          "name": "spender",
          "type": "address"
        },
        {
          "internalType": "uint256",
          "name": "addedValue",
          "type": "uint256"
        }
      ],
      "name": "increaseAllowance",
      "outputs": [
        {
          "internalType": "bool",
          "name": "",
          "type": "bool"
        }
      ],
      "stateMutability": "nonpayable",
      "type": "function"
    },
    {
      "inputs": [
        {
          "internalType": "address",
          "name": "to",
          "type": "address"
        },
        {
          "internalType": "uint256",
          "name": "amount",
          "type": "uint256"
        }
      ],
      "name": "mint",
      "outputs": [],
      "stateMutability": "nonpayable",
      "type": "function"
    },
    {
      "inputs": [],
      "name": "name",
      "outputs": [
        {
          "internalType": "string",
          "name": "",
          "type": "string"
        }
      ],
      "stateMutability": "view",
      "type": "function"
    },
    {
      "inputs": [],
      "name": "symbol",
      "outputs": [
        {
          "internalType": "string",
          "name": "",
          "type": "string"
        }
      ],
      "stateMutability": "view",
      "type": "function"
    },
    {
      "inputs": [],
      "name": "totalSupply",
      "outputs": [
        {
          "internalType": "uint256",
          "name": "",
          "type": "uint256"
        }
      ],
      "stateMutability": "view",
      "type": "function"
    },
    {
      "inputs": [
        {
          "internalType": "address",
          "name": "to",
          "type": "address"
        },
        {
          "internalType": "uint256",
          "name": "amount",
          "type": "uint256"
        }
      ],
      "name": "transfer",
      "outputs": [
        {
          "internalType": "bool",
          "name": "",
          "type": "bool"
        }
      ],
      "stateMutability": "nonpayable",
      "type": "function"
    },
    {
      "inputs": [
        {
          "internalType": "address",
          "name": "from",
          "type": "address"
        },
        {
          "internalType": "address",
          "name": "to",
          "type": "address"
        },
        {
          "internalType": "uint256",
          "name": "amount",
          "type": "uint256"
        }
      ],
      "name": "transferFrom",
      "outputs": [
        {
          "internalType": "bool",
          "name": "",
          "type": "bool"
        }
      ],
      "stateMutability": "nonpayable",
      "type": "function"
    }
  ],
  "bytecode": "0x60406080815234620003cd5762000ec4803803806200001e81620003d2565b92833981018282820312620003cd5781516001600160401b039290838111620003cd57826200004f918301620003f8565b9060209283820151858111620003cd576200006b9201620003f8565b90805193808511620002cd5760038054956001938488811c98168015620003c2575b87891014620003ac578190601f9889811162000356575b508790898311600114620002ef57600092620002e3575b505060001982841b1c191690841b1781555b8351918211620002cd5760049384548481811c91168015620002c2575b87821014620002ad5787811162000262575b508590878411600114620001f757938394918492600095620001eb575b50501b92600019911b1c19161781555b620f424092836005553315620001ac5750600254908382018092116200019757506000917fddf252ad1be2c89b69c2b068fc378daa952ba7f163c4a11628f55a4df523b3ef9160025533835282815284832084815401905584519384523393a351610a5990816200046b8239f35b601190634e487b7160e01b6000525260246000fd5b60649285519262461bcd60e51b845283015260248201527f45524332303a206d696e7420746f20746865207a65726f2061646472657373006044820152fd5b01519350388062000119565b9190601f198416928660005284886000209460005b8a898383106200024a57505050106200022f575b50505050811b01815562000129565b01519060f884600019921b161c191690553880808062000220565b8686015189559097019694850194889350016200020c565b85600052866000208880860160051c820192898710620002a3575b0160051c019085905b82811062000296575050620000fc565b6000815501859062000286565b925081926200027d565b602286634e487b7160e01b6000525260246000fd5b90607f1690620000ea565b634e487b7160e01b600052604160045260246000fd5b015190503880620000bb565b90869350601f1983169185600052896000209260005b8b8282106200033f575050841162000326575b505050811b018155620000cd565b015160001983861b60f8161c1916905538808062000318565b8385015186558a9790950194938401930162000305565b90915083600052876000208980850160051c8201928a8610620003a2575b918891869594930160051c01915b82811062000392575050620000a4565b6000815585945088910162000382565b9250819262000374565b634e487b7160e01b600052602260045260246000fd5b97607f16976200008d565b600080fd5b6040519190601f01601f191682016001600160401b03811183821017620002cd57604052565b919080601f84011215620003cd5782516001600160401b038111620002cd576020906200042e601f8201601f19168301620003d2565b92818452828287010111620003cd5760005b8181106200045657508260009394955001015290565b85810183015184820184015282016200044056fe608060408181526004918236101561001657600080fd5b600092833560e01c91826306fdde031461064e57508163095ea7b31461062457816318160ddd1461060557816323b872dd1461053b578163313ce5671461051f57816339509351146104cf57816340c10f191461041e57816370a08231146103e757816379cc6790146102d857816395d89b41146101d7578163a457c2d71461012f57508063a9059cbb146100ff5763dd62ed3e146100b457600080fd5b346100fb57806003193601126100fb57806020926100d0610751565b6100d861076c565b6001600160a01b0391821683526001865283832091168252845220549051908152f35b5080fd5b50346100fb57806003193601126100fb5760209061012861011e610751565b60243590336107a5565b5160018152f35b905082346101d457826003193601126101d45761014a610751565b918360243592338152600160205281812060018060a01b0386168252602052205490828210610183576020856101288585038733610901565b608490602086519162461bcd60e51b8352820152602560248201527f45524332303a2064656372656173656420616c6c6f77616e63652062656c6f77604482015264207a65726f60d81b6064820152fd5b80fd5b8383346100fb57816003193601126100fb57805190828454600181811c908083169283156102ce575b60209384841081146102bb5783885290811561029f5750600114610267575b505050829003601f01601f19168201926001600160401b038411838510176102545750829182610250925282610708565b0390f35b634e487b7160e01b815260418552602490fd5b919250868652828620918387935b83851061028b575050505083010185808061021f565b805488860183015293019284908201610275565b60ff1916878501525050151560051b840101905085808061021f565b634e487b7160e01b895260228a52602489fd5b91607f1691610200565b839150346100fb57826003193601126100fb576102f3610751565b6001600160a01b03169060243590821561039a5782845283602052848420549082821061034c5750818495600080516020610a04833981519152936020938688528785520381872055816002540360025551908152a380f35b608490602087519162461bcd60e51b8352820152602260248201527f45524332303a206275726e20616d6f756e7420657863656564732062616c616e604482015261636560f01b6064820152fd5b608490602086519162461bcd60e51b8352820152602160248201527f45524332303a206275726e2066726f6d20746865207a65726f206164647265736044820152607360f81b6064820152fd5b5050346100fb5760203660031901126100fb5760209181906001600160a01b0361040f610751565b16815280845220549051908152f35b919050346104cb57806003193601126104cb57610439610751565b6001600160a01b031691602435919083156104895750602082600080516020610a048339815191529261046f8795600254610782565b60025585855284835280852082815401905551908152a380f35b6020606492519162461bcd60e51b8352820152601f60248201527f45524332303a206d696e7420746f20746865207a65726f2061646472657373006044820152fd5b8280fd5b5050346100fb57806003193601126100fb576101286020926105186104f2610751565b338352600186528483206001600160a01b03821684528652918490205460243590610782565b9033610901565b5050346100fb57816003193601126100fb576020905160128152f35b839150346100fb5760603660031901126100fb57610557610751565b61055f61076c565b91846044359460018060a01b038416815260016020528181203382526020522054906000198203610599575b6020866101288787876107a5565b8482106105c257509183916105b76020969561012895033383610901565b91939481935061058b565b606490602087519162461bcd60e51b8352820152601d60248201527f45524332303a20696e73756666696369656e7420616c6c6f77616e63650000006044820152fd5b5050346100fb57816003193601126100fb576020906002549051908152f35b5050346100fb57806003193601126100fb57602090610128610644610751565b6024359033610901565b849084346104cb57826003193601126104cb5782600354600181811c908083169283156106fe575b60209384841081146102bb5783885290811561029f57506001146106c557505050829003601f01601f19168201926001600160401b038411838510176102545750829182610250925282610708565b91925060038652828620918387935b8385106106ea575050505083010185808061021f565b8054888601830152930192849082016106d4565b91607f1691610676565b6020808252825181830181905290939260005b82811061073d57505060409293506000838284010152601f8019910116010190565b81810186015184820160400152850161071b565b600435906001600160a01b038216820361076757565b600080fd5b602435906001600160a01b038216820361076757565b9190820180921161078f57565b634e487b7160e01b600052601160045260246000fd5b6001600160a01b039081169182156108ae571691821561085d576000828152806020526040812054918083106108095760408282600080516020610a04833981519152958760209652828652038282205586815220818154019055604051908152a3565b60405162461bcd60e51b815260206004820152602660248201527f45524332303a207472616e7366657220616d6f756e7420657863656564732062604482015265616c616e636560d01b6064820152608490fd5b60405162461bcd60e51b815260206004820152602360248201527f45524332303a207472616e7366657220746f20746865207a65726f206164647260448201526265737360e81b6064820152608490fd5b60405162461bcd60e51b815260206004820152602560248201527f45524332303a207472616e736665722066726f6d20746865207a65726f206164604482015264647265737360d81b6064820152608490fd5b6001600160a01b039081169182156109b257169182156109625760207f8c5be1e5ebec7d5bd14f71427d1e84f3dd0314c0f7b2291e5b200ac8c7c3b925918360005260018252604060002085600052825280604060002055604051908152a3565b60405162461bcd60e51b815260206004820152602260248201527f45524332303a20617070726f766520746f20746865207a65726f206164647265604482015261737360f01b6064820152608490fd5b60405162461bcd60e51b8152602060048201526024808201527f45524332303a20617070726f76652066726f6d20746865207a65726f206164646044820152637265737360e01b6064820152608490fdfeddf252ad1be2c89b69c2b068fc378daa952ba7f163c4a11628f55a4df523b3efa264697066735822122059c1433dd31aa621d882baf965c6e0415d65929616ea5a13af75e26ac4e752f764736f6c63430008110033",
  "linkReferences": {},
  "deployedLinkReferences": {}
}